{
  "_format": "hh-sol-artifact-1",
  "contractName": "PaymentGateway",
  "sourceName": "contracts/Payment.sol",
  "abi": [
    {
      "inputs": [],
      "stateMutability": "nonpayable",
      "type": "constructor"
    },
    {
      "inputs": [
        {
          "internalType": "address payable",
          "name": "reciver",
          "type": "address"
        }
      ],
      "name": "Payment",
      "outputs": [],
      "stateMutability": "payable",
      "type": "function"
    }
  ],
  "bytecode": "0x608060405234801561001057600080fd5b50336000806101000a81548173ffffffffffffffffffffffffffffffffffffffff021916908373ffffffffffffffffffffffffffffffffffffffff160217905550610262806100606000396000f3fe60806040526004361061001e5760003560e01c806351db83ab14610023575b600080fd5b61003d6004803603810190610038919061015c565b61003f565b005b600073ffffffffffffffffffffffffffffffffffffffff168173ffffffffffffffffffffffffffffffffffffffff1614156100af576040517f08c379a00000000000000000000000000000000000000000000000000000000081526004016100a69061020c565b60405180910390fd5b8073ffffffffffffffffffffffffffffffffffffffff166108fc349081150290604051600060405180830381858888f193505050501580156100f5573d6000803e3d6000fd5b5050565b600080fd5b600073ffffffffffffffffffffffffffffffffffffffff82169050919050565b6000610129826100fe565b9050919050565b6101398161011e565b811461014457600080fd5b50565b60008135905061015681610130565b92915050565b600060208284031215610172576101716100f9565b5b600061018084828501610147565b91505092915050565b600082825260208201905092915050565b7f506c656173652070726f7669646520616e20616d6f756e7420746f207472616e60008201527f73666572202e2000000000000000000000000000000000000000000000000000602082015250565b60006101f6602783610189565b91506102018261019a565b604082019050919050565b60006020820190508181036000830152610225816101e9565b905091905056fea2646970667358221220b882076e42da39738089e41c7db535d82d7f5a397674a31a824d76561fdf893064736f6c63430008090033",
  "linkReferences": {},
  "deployedLinkReferences": {}
}